{
  "address": "0x5FbDB2315678afecb367f032d93F642f64180aa3",
  "abi": [
    {
      "inputs": [],
      "name": "CrowdFunding__DeadlineShouldBeInTheFuture",
      "type": "error"
    },
    {
      "inputs": [],
      "name": "CrowdFunding__DonationNotSuccessFully",
      "type": "error"
    },
    {
      "inputs": [],
      "name": "CrowdFunding__PleaseSendEnough",
      "type": "error"
    },
    {
      "anonymous": false,
      "inputs": [
        {
          "indexed": true,
          "internalType": "address",
          "name": "_owner",
          "type": "address"
        },
        {
          "indexed": false,
          "internalType": "string",
          "name": "_title",
          "type": "string"
        },
        {
          "indexed": false,
          "internalType": "string",
          "name": "_description",
          "type": "string"
        },
        {
          "indexed": false,
          "internalType": "uint256",
          "name": "_target",
          "type": "uint256"
        },
        {
          "indexed": false,
          "internalType": "uint256",
          "name": "_deadline",
          "type": "uint256"
        },
        {
          "indexed": false,
          "internalType": "string",
          "name": "_image",
          "type": "string"
        }
      ],
      "name": "CampaignCreated",
      "type": "event"
    },
    {
      "inputs": [],
      "name": "campaignId",
      "outputs": [
        {
          "internalType": "uint256",
          "name": "",
          "type": "uint256"
        }
      ],
      "stateMutability": "view",
      "type": "function"
    },
    {
      "inputs": [
        {
          "internalType": "uint256",
          "name": "",
          "type": "uint256"
        }
      ],
      "name": "campaigns",
      "outputs": [
        {
          "internalType": "address",
          "name": "owner",
          "type": "address"
        },
        {
          "internalType": "string",
          "name": "title",
          "type": "string"
        },
        {
          "internalType": "string",
          "name": "description",
          "type": "string"
        },
        {
          "internalType": "uint256",
          "name": "target",
          "type": "uint256"
        },
        {
          "internalType": "uint256",
          "name": "deadline",
          "type": "uint256"
        },
        {
          "internalType": "uint256",
          "name": "amountCollected",
          "type": "uint256"
        },
        {
          "internalType": "string",
          "name": "image",
          "type": "string"
        }
      ],
      "stateMutability": "view",
      "type": "function"
    },
    {
      "inputs": [
        {
          "internalType": "string",
          "name": "_title",
          "type": "string"
        },
        {
          "internalType": "string",
          "name": "_description",
          "type": "string"
        },
        {
          "internalType": "uint256",
          "name": "_target",
          "type": "uint256"
        },
        {
          "internalType": "uint256",
          "name": "_deadline",
          "type": "uint256"
        },
        {
          "internalType": "string",
          "name": "_image",
          "type": "string"
        }
      ],
      "name": "createCampaign",
      "outputs": [],
      "stateMutability": "nonpayable",
      "type": "function"
    },
    {
      "inputs": [
        {
          "internalType": "uint256",
          "name": "_id",
          "type": "uint256"
        }
      ],
      "name": "donateToCampaign",
      "outputs": [],
      "stateMutability": "payable",
      "type": "function"
    },
    {
      "inputs": [],
      "name": "getCampaigns",
      "outputs": [
        {
          "components": [
            {
              "internalType": "address",
              "name": "owner",
              "type": "address"
            },
            {
              "internalType": "string",
              "name": "title",
              "type": "string"
            },
            {
              "internalType": "string",
              "name": "description",
              "type": "string"
            },
            {
              "internalType": "uint256",
              "name": "target",
              "type": "uint256"
            },
            {
              "internalType": "uint256",
              "name": "deadline",
              "type": "uint256"
            },
            {
              "internalType": "uint256",
              "name": "amountCollected",
              "type": "uint256"
            },
            {
              "internalType": "string",
              "name": "image",
              "type": "string"
            },
            {
              "internalType": "address[]",
              "name": "donators",
              "type": "address[]"
            },
            {
              "internalType": "uint256[]",
              "name": "donations",
              "type": "uint256[]"
            }
          ],
          "internalType": "struct CrowdFunding.Campaign[]",
          "name": "",
          "type": "tuple[]"
        }
      ],
      "stateMutability": "view",
      "type": "function"
    },
    {
      "inputs": [
        {
          "internalType": "uint256",
          "name": "_id",
          "type": "uint256"
        }
      ],
      "name": "getDonators",
      "outputs": [
        {
          "internalType": "address[]",
          "name": "",
          "type": "address[]"
        },
        {
          "internalType": "uint256[]",
          "name": "",
          "type": "uint256[]"
        }
      ],
      "stateMutability": "view",
      "type": "function"
    }
  ],
  "transactionHash": "0x3a5d4528d8284f8542c715cbcf89ed5143a7ebb1b8d1d2510ecc8e22e92fe587",
  "args": [],
  "numDeployments": 1,
  "solcInputHash": "86bd419eceb6bbcbf47518d595e6e966",
  "bytecode": "0x6080604052600060015534801561001557600080fd5b50611917806100256000396000f3fe6080604052600436106100555760003560e01c80630fa91fa91461005a578063141961bc1461009857806342a4fda8146100db5780638ed5b0fc146100f7578063a6b0363314610122578063d4e3dd6f1461014d575b600080fd5b34801561006657600080fd5b50610081600480360381019061007c9190610c2b565b610176565b60405161008f929190610e06565b60405180910390f35b3480156100a457600080fd5b506100bf60048036038101906100ba9190610c2b565b610286565b6040516100d29796959493929190610eeb565b60405180910390f35b6100f560048036038101906100f09190610c2b565b610480565b005b34801561010357600080fd5b5061010c610650565b6040516101199190610f6f565b60405180910390f35b34801561012e57600080fd5b50610137610656565b6040516101449190611255565b60405180910390f35b34801561015957600080fd5b50610174600480360381019061016f91906113ac565b610a2c565b005b6060806000808481526020019081526020016000206007016000808581526020019081526020016000206008018180548060200260200160405190810160405280929190818152602001828054801561022457602002820191906000526020600020905b8160009054906101000a900473ffffffffffffffffffffffffffffffffffffffff1673ffffffffffffffffffffffffffffffffffffffff16815260200190600101908083116101da575b505050505091508080548060200260200160405190810160405280929190818152602001828054801561027657602002820191906000526020600020905b815481526020019060010190808311610262575b5050505050905091509150915091565b60006020528060005260406000206000915090508060000160009054906101000a900473ffffffffffffffffffffffffffffffffffffffff16908060010180546102cf906114aa565b80601f01602080910402602001604051908101604052809291908181526020018280546102fb906114aa565b80156103485780601f1061031d57610100808354040283529160200191610348565b820191906000526020600020905b81548152906001019060200180831161032b57829003601f168201915b50505050509080600201805461035d906114aa565b80601f0160208091040260200160405190810160405280929190818152602001828054610389906114aa565b80156103d65780601f106103ab576101008083540402835291602001916103d6565b820191906000526020600020905b8154815290600101906020018083116103b957829003601f168201915b5050505050908060030154908060040154908060050154908060060180546103fd906114aa565b80601f0160208091040260200160405190810160405280929190818152602001828054610429906114aa565b80156104765780601f1061044b57610100808354040283529160200191610476565b820191906000526020600020905b81548152906001019060200180831161045957829003601f168201915b5050505050905087565b600034116104ba576040517f62ff11ef00000000000000000000000000000000000000000000000000000000815260040160405180910390fd5b60003490506000806000848152602001908152602001600020905060008160000160009054906101000a900473ffffffffffffffffffffffffffffffffffffffff1673ffffffffffffffffffffffffffffffffffffffff168360405161051f9061150c565b60006040518083038185875af1925050503d806000811461055c576040519150601f19603f3d011682016040523d82523d6000602084013e610561565b606091505b5050905080156106185781600701339080600181540180825580915050600190039060005260206000200160009091909190916101000a81548173ffffffffffffffffffffffffffffffffffffffff021916908373ffffffffffffffffffffffffffffffffffffffff1602179055508160080183908060018154018082558091505060019003906000526020600020016000909190919091505582826005015461060b9190611550565b826005018190555061064a565b6040517fda3c82f500000000000000000000000000000000000000000000000000000000815260040160405180910390fd5b50505050565b60015481565b6060600060015467ffffffffffffffff81111561067657610675611281565b5b6040519080825280602002602001820160405280156106af57816020015b61069c610b7f565b8152602001906001900390816106945790505b50905060005b600154811015610a24576000806000838152602001908152602001600020905080604051806101200160405290816000820160009054906101000a900473ffffffffffffffffffffffffffffffffffffffff1673ffffffffffffffffffffffffffffffffffffffff1673ffffffffffffffffffffffffffffffffffffffff168152602001600182018054610748906114aa565b80601f0160208091040260200160405190810160405280929190818152602001828054610774906114aa565b80156107c15780601f10610796576101008083540402835291602001916107c1565b820191906000526020600020905b8154815290600101906020018083116107a457829003601f168201915b505050505081526020016002820180546107da906114aa565b80601f0160208091040260200160405190810160405280929190818152602001828054610806906114aa565b80156108535780601f1061082857610100808354040283529160200191610853565b820191906000526020600020905b81548152906001019060200180831161083657829003601f168201915b5050505050815260200160038201548152602001600482015481526020016005820154815260200160068201805461088a906114aa565b80601f01602080910402602001604051908101604052809291908181526020018280546108b6906114aa565b80156109035780601f106108d857610100808354040283529160200191610903565b820191906000526020600020905b8154815290600101906020018083116108e657829003601f168201915b505050505081526020016007820180548060200260200160405190810160405280929190818152602001828054801561099157602002820191906000526020600020905b8160009054906101000a900473ffffffffffffffffffffffffffffffffffffffff1673ffffffffffffffffffffffffffffffffffffffff1681526020019060010190808311610947575b50505050508152602001600882018054806020026020016040519081016040528092919081815260200182805480156109e957602002820191906000526020600020905b8154815260200190600101908083116109d5575b505050505081525050838381518110610a0557610a04611584565b5b6020026020010181905250508080610a1c906115b3565b9150506106b5565b508091505090565b60008060006001548152602001908152602001600020905042831015610a7e576040517f5048659200000000000000000000000000000000000000000000000000000000815260040160405180910390fd5b338160000160006101000a81548173ffffffffffffffffffffffffffffffffffffffff021916908373ffffffffffffffffffffffffffffffffffffffff16021790555085816001019081610ad291906117a7565b5084816002019081610ae491906117a7565b5083816003018190555082816004018190555081816006019081610b0891906117a7565b5060016000815480929190610b1c906115b3565b91905055503373ffffffffffffffffffffffffffffffffffffffff167fac19613078b51501aaa270ef8c4878d3ef375fdd93e7f2b7d7e67926fae841c88787878787604051610b6f959493929190611879565b60405180910390a2505050505050565b604051806101200160405280600073ffffffffffffffffffffffffffffffffffffffff16815260200160608152602001606081526020016000815260200160008152602001600081526020016060815260200160608152602001606081525090565b6000604051905090565b600080fd5b600080fd5b6000819050919050565b610c0881610bf5565b8114610c1357600080fd5b50565b600081359050610c2581610bff565b92915050565b600060208284031215610c4157610c40610beb565b5b6000610c4f84828501610c16565b91505092915050565b600081519050919050565b600082825260208201905092915050565b6000819050602082019050919050565b600073ffffffffffffffffffffffffffffffffffffffff82169050919050565b6000610caf82610c84565b9050919050565b610cbf81610ca4565b82525050565b6000610cd18383610cb6565b60208301905092915050565b6000602082019050919050565b6000610cf582610c58565b610cff8185610c63565b9350610d0a83610c74565b8060005b83811015610d3b578151610d228882610cc5565b9750610d2d83610cdd565b925050600181019050610d0e565b5085935050505092915050565b600081519050919050565b600082825260208201905092915050565b6000819050602082019050919050565b610d7d81610bf5565b82525050565b6000610d8f8383610d74565b60208301905092915050565b6000602082019050919050565b6000610db382610d48565b610dbd8185610d53565b9350610dc883610d64565b8060005b83811015610df9578151610de08882610d83565b9750610deb83610d9b565b925050600181019050610dcc565b5085935050505092915050565b60006040820190508181036000830152610e208185610cea565b90508181036020830152610e348184610da8565b90509392505050565b610e4681610ca4565b82525050565b600081519050919050565b600082825260208201905092915050565b60005b83811015610e86578082015181840152602081019050610e6b565b60008484015250505050565b6000601f19601f8301169050919050565b6000610eae82610e4c565b610eb88185610e57565b9350610ec8818560208601610e68565b610ed181610e92565b840191505092915050565b610ee581610bf5565b82525050565b600060e082019050610f00600083018a610e3d565b8181036020830152610f128189610ea3565b90508181036040830152610f268188610ea3565b9050610f356060830187610edc565b610f426080830186610edc565b610f4f60a0830185610edc565b81810360c0830152610f618184610ea3565b905098975050505050505050565b6000602082019050610f846000830184610edc565b92915050565b600081519050919050565b600082825260208201905092915050565b6000819050602082019050919050565b600082825260208201905092915050565b6000610fd282610e4c565b610fdc8185610fb6565b9350610fec818560208601610e68565b610ff581610e92565b840191505092915050565b600082825260208201905092915050565b600061101c82610c58565b6110268185611000565b935061103183610c74565b8060005b838110156110625781516110498882610cc5565b975061105483610cdd565b925050600181019050611035565b5085935050505092915050565b600082825260208201905092915050565b600061108b82610d48565b611095818561106f565b93506110a083610d64565b8060005b838110156110d15781516110b88882610d83565b97506110c383610d9b565b9250506001810190506110a4565b5085935050505092915050565b6000610120830160008301516110f76000860182610cb6565b506020830151848203602086015261110f8282610fc7565b915050604083015184820360408601526111298282610fc7565b915050606083015161113e6060860182610d74565b5060808301516111516080860182610d74565b5060a083015161116460a0860182610d74565b5060c083015184820360c086015261117c8282610fc7565b91505060e083015184820360e08601526111968282611011565b9150506101008301518482036101008601526111b28282611080565b9150508091505092915050565b60006111cb83836110de565b905092915050565b6000602082019050919050565b60006111eb82610f8a565b6111f58185610f95565b93508360208202850161120785610fa6565b8060005b85811015611243578484038952815161122485826111bf565b945061122f836111d3565b925060208a0199505060018101905061120b565b50829750879550505050505092915050565b6000602082019050818103600083015261126f81846111e0565b905092915050565b600080fd5b600080fd5b7f4e487b7100000000000000000000000000000000000000000000000000000000600052604160045260246000fd5b6112b982610e92565b810181811067ffffffffffffffff821117156112d8576112d7611281565b5b80604052505050565b60006112eb610be1565b90506112f782826112b0565b919050565b600067ffffffffffffffff82111561131757611316611281565b5b61132082610e92565b9050602081019050919050565b82818337600083830152505050565b600061134f61134a846112fc565b6112e1565b90508281526020810184848401111561136b5761136a61127c565b5b61137684828561132d565b509392505050565b600082601f83011261139357611392611277565b5b81356113a384826020860161133c565b91505092915050565b600080600080600060a086880312156113c8576113c7610beb565b5b600086013567ffffffffffffffff8111156113e6576113e5610bf0565b5b6113f28882890161137e565b955050602086013567ffffffffffffffff81111561141357611412610bf0565b5b61141f8882890161137e565b945050604061143088828901610c16565b935050606061144188828901610c16565b925050608086013567ffffffffffffffff81111561146257611461610bf0565b5b61146e8882890161137e565b9150509295509295909350565b7f4e487b7100000000000000000000000000000000000000000000000000000000600052602260045260246000fd5b600060028204905060018216806114c257607f821691505b6020821081036114d5576114d461147b565b5b50919050565b600081905092915050565b50565b60006114f66000836114db565b9150611501826114e6565b600082019050919050565b6000611517826114e9565b9150819050919050565b7f4e487b7100000000000000000000000000000000000000000000000000000000600052601160045260246000fd5b600061155b82610bf5565b915061156683610bf5565b925082820190508082111561157e5761157d611521565b5b92915050565b7f4e487b7100000000000000000000000000000000000000000000000000000000600052603260045260246000fd5b60006115be82610bf5565b91507fffffffffffffffffffffffffffffffffffffffffffffffffffffffffffffffff82036115f0576115ef611521565b5b600182019050919050565b60008190508160005260206000209050919050565b60006020601f8301049050919050565b600082821b905092915050565b60006008830261165d7fffffffffffffffffffffffffffffffffffffffffffffffffffffffffffffffff82611620565b6116678683611620565b95508019841693508086168417925050509392505050565b6000819050919050565b60006116a461169f61169a84610bf5565b61167f565b610bf5565b9050919050565b6000819050919050565b6116be83611689565b6116d26116ca826116ab565b84845461162d565b825550505050565b600090565b6116e76116da565b6116f28184846116b5565b505050565b5b818110156117165761170b6000826116df565b6001810190506116f8565b5050565b601f82111561175b5761172c816115fb565b61173584611610565b81016020851015611744578190505b61175861175085611610565b8301826116f7565b50505b505050565b600082821c905092915050565b600061177e60001984600802611760565b1980831691505092915050565b6000611797838361176d565b9150826002028217905092915050565b6117b082610e4c565b67ffffffffffffffff8111156117c9576117c8611281565b5b6117d382546114aa565b6117de82828561171a565b600060209050601f83116001811461181157600084156117ff578287015190505b611809858261178b565b865550611871565b601f19841661181f866115fb565b60005b8281101561184757848901518255600182019150602085019450602081019050611822565b868310156118645784890151611860601f89168261176d565b8355505b6001600288020188555050505b505050505050565b600060a08201905081810360008301526118938188610ea3565b905081810360208301526118a78187610ea3565b90506118b66040830186610edc565b6118c36060830185610edc565b81810360808301526118d58184610ea3565b9050969550505050505056fea2646970667358221220aeb8bf5819674c73890a8cfe6f123f9cbcbe8e9b864512dfd38cc2e897053ae864736f6c63430008120033",
  "devdoc": {
    "kind": "dev",
    "methods": {},
    "version": 1
  },
  "userdoc": {
    "kind": "user",
    "methods": {},
    "version": 1
  },
  "storageLayout": {
    "storage": [
      {
        "astId": 33,
        "contract": "contracts/CrowdFunding.sol:CrowdFunding",
        "label": "campaigns",
        "offset": 0,
        "slot": "0",
        "type": "t_mapping(t_uint256,t_struct(Campaign)28_storage)"
      },
      {
        "astId": 36,
        "contract": "contracts/CrowdFunding.sol:CrowdFunding",
        "label": "campaignId",
        "offset": 0,
        "slot": "1",
        "type": "t_uint256"
      }
    ],
    "types": {
      "t_address": {
        "encoding": "inplace",
        "label": "address",
        "numberOfBytes": "20"
      },
      "t_array(t_address)dyn_storage": {
        "base": "t_address",
        "encoding": "dynamic_array",
        "label": "address[]",
        "numberOfBytes": "32"
      },
      "t_array(t_uint256)dyn_storage": {
        "base": "t_uint256",
        "encoding": "dynamic_array",
        "label": "uint256[]",
        "numberOfBytes": "32"
      },
      "t_mapping(t_uint256,t_struct(Campaign)28_storage)": {
        "encoding": "mapping",
        "key": "t_uint256",
        "label": "mapping(uint256 => struct CrowdFunding.Campaign)",
        "numberOfBytes": "32",
        "value": "t_struct(Campaign)28_storage"
      },
      "t_string_storage": {
        "encoding": "bytes",
        "label": "string",
        "numberOfBytes": "32"
      },
      "t_struct(Campaign)28_storage": {
        "encoding": "inplace",
        "label": "struct CrowdFunding.Campaign",
        "members": [
          {
            "astId": 9,
            "contract": "contracts/CrowdFunding.sol:CrowdFunding",
            "label": "owner",
            "offset": 0,
            "slot": "0",
            "type": "t_address"
          },
          {
            "astId": 11,
            "contract": "contracts/CrowdFunding.sol:CrowdFunding",
            "label": "title",
            "offset": 0,
            "slot": "1",
            "type": "t_string_storage"
          },
          {
            "astId": 13,
            "contract": "contracts/CrowdFunding.sol:CrowdFunding",
            "label": "description",
            "offset": 0,
            "slot": "2",
            "type": "t_string_storage"
          },
          {
            "astId": 15,
            "contract": "contracts/CrowdFunding.sol:CrowdFunding",
            "label": "target",
            "offset": 0,
            "slot": "3",
            "type": "t_uint256"
          },
          {
            "astId": 17,
            "contract": "contracts/CrowdFunding.sol:CrowdFunding",
            "label": "deadline",
            "offset": 0,
            "slot": "4",
            "type": "t_uint256"
          },
          {
            "astId": 19,
            "contract": "contracts/CrowdFunding.sol:CrowdFunding",
            "label": "amountCollected",
            "offset": 0,
            "slot": "5",
            "type": "t_uint256"
          },
          {
            "astId": 21,
            "contract": "contracts/CrowdFunding.sol:CrowdFunding",
            "label": "image",
            "offset": 0,
            "slot": "6",
            "type": "t_string_storage"
          },
          {
            "astId": 24,
            "contract": "contracts/CrowdFunding.sol:CrowdFunding",
            "label": "donators",
            "offset": 0,
            "slot": "7",
            "type": "t_array(t_address)dyn_storage"
          },
          {
            "astId": 27,
            "contract": "contracts/CrowdFunding.sol:CrowdFunding",
            "label": "donations",
            "offset": 0,
            "slot": "8",
            "type": "t_array(t_uint256)dyn_storage"
          }
        ],
        "numberOfBytes": "288"
      },
      "t_uint256": {
        "encoding": "inplace",
        "label": "uint256",
        "numberOfBytes": "32"
      }
    }
  }
}